:100000000C942A000C943C000C943C000C943C0092
:100010000C943C000C943C000C943C000C941A0191
:100020000C943C000C94E7000C943C000C94B4003D
:100030000C943C000C943C000C943C000C943C0050
:100040000C943C000C943C000C943C000C943C0040
:100050000C943C0011241FBECFE5D8E0DEBFCDBF1D
:1000600020E0A0E6B0E001C01D92AC36B207E1F797
:100070000E94A3000C94A9010C940000442379F180
:10008000413009F05FC0813079F028F08230A9F06A
:100090008330E1F008952AB381E090E001C0880F39
:1000A0006A95EAF7822B2CC027B381E090E001C06B
:1000B000880F6A95EAF7822B2EC024B381E090E086
:1000C00001C0880F6A95EAF7822B30C021B381E026
:1000D00090E001C0880F6A95EAF7822B32C0813028
:1000E00089F028F08230C9F0833011F108952AB3E5
:1000F00081E090E001C0880F6A95EAF7809582233D
:100100008ABB089527B381E090E001C0880F6A950B
:10011000EAF78095822387BB089524B381E090E0BD
:1001200001C0880F6A95EAF78095822384BB089501
:1001300021B381E090E001C0880F6A95EAF78095CD
:10014000822381BB08950E94AB0089E00E94660172
:100150000E947701FFCF82B341E065E00E943E003C
:100160000E9455010C9477011F920F920FB60F92C7
:1001700011242F933F934F935F936F937F938F93AC
:100180009F93AF93BF93EF93FF93809164009091FF
:10019000650001969093650080936400892B31F48B
:1001A00012BEE0916A00F0916B000995FF91EF910A
:1001B000BF91AF919F918F917F916F915F914F917F
:1001C0003F912F910F900FBE0F901F9018951F9287
:1001D0000F920FB60F9211242F933F934F935F937B
:1001E0006F937F938F939F93AF93BF93EF93FF93FF
:1001F00080916200909163000196909363008093D8
:100200006200892B31F412BEE0916600F091670024
:100210000995FF91EF91BF91AF919F918F917F9140
:100220006F915F914F913F912F910F900FBE0F9063
:100230001F9018951F920F920FB60F9211242F93B3
:100240003F934F935F936F937F938F939F93AF935E
:10025000BF93EF93FF9380916000909161000196AE
:100260009093610080936000209168003091690054
:100270008217930749F41092610010926000E09198
:100280006600F09167000995FF91EF91BF91AF91E2
:100290009F918F917F916F915F914F913F912F919E
:1002A0000F900FBE0F901F9018958FB58E7F8FBD4A
:1002B0008FB582608FBD8EB588608EBD8EB5806132
:1002C0008EBD82EE94E097BD86BD089522EE34E0A7
:1002D000482F429FC001439F900D112464E670E0B7
:1002E0000E949501615071097BBD6ABD08958EB56C
:1002F0008E7F8EBD8EB58D7F8EBD8EB584608EBD9A
:100300000895AA1BBB1B51E107C0AA1FBB1FA6175C
:10031000B70710F0A61BB70B881F991F5A95A9F7AE
:1003200080959095BC01CD01089597FB072E16F49A
:10033000009407D077FD09D00E94810107FC05D009
:100340003EF4909581959F4F0895709561957F4FEC
:060350000895F894FFCFB0
:00000001FF
