S00E000054494D4D45522E7372656348
S11300000C942A000C943C000C943C000C943C008E
S11300100C943C000C943C000C943C000C943C006C
S11300200C943C000C943C000C943C000C94530144
S11300300C943C000C943C000C943C000C943C004C
S11300400C943C000C943C000C943C000C943C003C
S11300500C943C0011241FBECFE5D8E0DEBFCDBF19
S113006020E0A0E6B0E001C01D92A536B207E1F79A
S11300700E9446010C94C2010C940000442379F1BF
S1130080413009F05FC0813079F028F08230A9F066
S11300908330E1F008952AB381E090E001C0880F35
S11300A06A95EAF7822B2CC027B381E090E001C067
S11300B0880F6A95EAF7822B2EC024B381E090E082
S11300C001C0880F6A95EAF7822B30C021B381E022
S11300D090E001C0880F6A95EAF7822B32C0813024
S11300E089F028F08230C9F0833011F108952AB3E1
S11300F081E090E001C0880F6A95EAF78095822339
S11301008ABB089527B381E090E001C0880F6A9507
S1130110EAF78095822387BB089524B381E090E0B9
S113012001C0880F6A95EAF78095822384BB0895FD
S113013021B381E090E001C0880F6A95EAF78095C9
S1130140822381BB0895442379F1413009F05FC0D3
S1130150813079F028F08230A9F08330E1F00895FD
S11301602BB381E090E001C0880F6A95EAF7822BF7
S11301702CC028B381E090E001C0880F6A95EAF7AB
S1130180822B2EC025B381E090E001C0880F6A95D0
S1130190EAF7822B30C022B381E090E001C0880FDF
S11301A06A95EAF7822B32C0813089F028F08230D8
S11301B0C9F0833011F108952BB381E090E001C0C0
S11301C0880F6A95EAF7809582238BBB089528B33C
S11301D081E090E001C0880F6A95EAF78095822358
S11301E088BB089525B381E090E001C0880F6A952B
S11301F0EAF78095822385BB089522B381E090E0DD
S113020001C0880F6A95EAF78095822382BB08951E
S1130210813081F028F08230B9F08330F9F008950C
S11302202BB381E090E001C0880F6A95EAF782273A
S11302308BBB089528B381E090E001C0880F6A95D4
S1130240EAF7822788BB089525B381E090E001C0D6
S1130250880F6A95EAF7822785BB089522B381E067
S113026090E001C0880F6A95EAF7822782BB08955F
S113027041E062E082E00C943E0041E062E082E012
S11302800C94A30062E082E00C9408010E943801FF
S11302900E943D010E948E0188EE93E00E949B0122
S11302A00E949701FFCF1F920F920FB60F92112455
S11302B02F933F934F935F936F937F938F939F936A
S11302C0AF93BF93EF93FF9380916000909161008F
S11302D001969093610080936000209163003091B7
S11302E064008217930749F4109261001092600031
S11302F08091620082BF0E944201FF91EF91BF9101
S1130300AF919F918F917F916F915F914F913F91A9
S11303102F910F900FBE0F901F90189583B783BF36
S113032089B7816089BF8FB780688FBF089583B70D
S1130330856083BF089528EE33E0AC01429FC0017D
S1130340439F900D529F900D11249C0124E0329FF5
S1130350212D33271124309364002093630056E049
S1130360969587955A95E1F781958093620082BFAF
S1130370809163009091640001969093640080934F
S10B038063000895F894FFCF17
S9030000FC
