:100000000C942A000C943C000C943C000C943C0092
:100010000C943C000C943C000C943C000C946C013F
:100020000C943C000C943C000C943C000C942E016D
:100030000C943C000C943C000C943C000C943C0050
:100040000C943C000C943C000C943C000C943C0040
:100050000C943C0011241FBECFE5D8E0DEBFCDBF1D
:1000600020E0A0E6B0E001C01D92AD36B207E1F796
:100070000E94DC000C94A7010C940000442379F149
:10008000413009F05FC0813079F028F08230A9F06A
:100090008330E1F008952AB381E090E001C0880F39
:1000A0006A95EAF7822B2CC027B381E090E001C06B
:1000B000880F6A95EAF7822B2EC024B381E090E086
:1000C00001C0880F6A95EAF7822B30C021B381E026
:1000D00090E001C0880F6A95EAF7822B32C0813028
:1000E00089F028F08230C9F0833011F108952AB3E5
:1000F00081E090E001C0880F6A95EAF7809582233D
:100100008ABB089527B381E090E001C0880F6A950B
:10011000EAF78095822387BB089524B381E090E0BD
:1001200001C0880F6A95EAF78095822384BB089501
:1001300021B381E090E001C0880F6A95EAF78095CD
:10014000822381BB0895813081F028F08230B9F09C
:100150008330F9F008952BB381E090E001C0880F5F
:100160006A95EAF782278BBB089528B381E090E077
:1001700001C0880F6A95EAF7822788BB089525B3E6
:1001800081E090E001C0880F6A95EAF7822785BB7D
:10019000089522B381E090E001C0880F6A95EAF7E4
:1001A000822782BB089541E062E082E00C943E0029
:1001B00062E082E00C94A3000E94D30088ED90E0FE
:1001C0000E9429010E94EB0088EE93E00E94020148
:1001D0000E94F800FFCF83B7877F83BF83B78F7BF1
:1001E00083BF89B7816089BF8FB780688FBF08954B
:1001F00083B7816083BF83B78D7F83BF83B78460FC
:1002000083BF089528EE33E0AC01429FC001439FB5
:10021000900D529F900D11249C0124E0329F212DBE
:100220003327112430936C0020936B0056E0969591
:1002300087955A95E1F7819580936A0082BF8091F6
:100240006B0090916C00019690936C0080936B0012
:100250000895909369008093680008951F920F920B
:100260000FB60F9211242F933F934F935F936F9389
:100270007F938F939F93AF93BF93EF93FF9380915F
:1002800062009091630001969093630080936200F6
:1002900020916B0030916C008217930761F41092EB
:1002A00063001092620080916A0082BFE091680052
:1002B000F09169000995FF91EF91BF91AF919F91E6
:1002C0008F917F916F915F914F913F912F910F90FF
:1002D0000FBE0F901F9018951F920F920FB60F929E
:1002E00011242F933F934F935F936F937F938F933B
:1002F0009F93AF93BF93EF93FF9380916000909192
:1003000061000196909361008093600020916600E7
:10031000309167008217930749F4109261001092A0
:100320006000E0916400F09165000995FF91EF9104
:10033000BF91AF919F918F917F916F915F914F91FD
:100340003F912F910F900FBE0F901F901895F8942A
:02035000FFCFDD
:00000001FF
