S00D000054696D65722E7372656316
S11300000C942A000C943C000C943C000C943C008E
S11300100C943C000C943C000C943C000C94D001D7
S11300200C943C000C949D010C945D010C942801EB
S11300300C943C000C943C000C943C000C943C004C
S11300400C943C000C943C000C943C000C943C003C
S11300500C943C0011241FBECFE5D8E0DEBFCDBF19
S113006020E0A0E6B0E001C01D92AF36B207E1F790
S11300700E94DC000C941F020C940000442379F1CC
S1130080413009F05FC0813079F028F08230A9F066
S11300908330E1F008952AB381E090E001C0880F35
S11300A06A95EAF7822B2CC027B381E090E001C067
S11300B0880F6A95EAF7822B2EC024B381E090E082
S11300C001C0880F6A95EAF7822B30C021B381E022
S11300D090E001C0880F6A95EAF7822B32C0813024
S11300E089F028F08230C9F0833011F108952AB3E1
S11300F081E090E001C0880F6A95EAF78095822339
S11301008ABB089527B381E090E001C0880F6A9507
S1130110EAF78095822387BB089524B381E090E0B9
S113012001C0880F6A95EAF78095822384BB0895FD
S113013021B381E090E001C0880F6A95EAF78095C9
S1130140822381BB0895813081F028F08230B9F098
S11301508330F9F008952BB381E090E001C0880F5B
S11301606A95EAF782278BBB089528B381E090E073
S113017001C0880F6A95EAF7822788BB089525B3E2
S113018081E090E001C0880F6A95EAF7822785BB79
S1130190089522B381E090E001C0880F6A95EAF7E0
S11301A0822782BB089541E062E082E00C943E0025
S11301B062E082E00C94A3000E94D30088ED90E0FA
S11301C00E9423010E94EB0088EE93E00E9402014A
S11301D00E94F800FFCF83B7886083BF83B78F7B0B
S11301E083BF89B7826089BF8FB780688FBF089546
S11301F083B7816083BF83B78D7F83BF83B78460F8
S113020083BF089548EE53E0849F9001859F300D8D
S1130210949F300D1124C90146E0969587954A951F
S1130220E1F76DE970E00E940B02819580936E0006
S11302308CBFC90160E477E20E940B0270936D00E9
S113024060936C00089590936B0080936A00089506
S11302501F920F920FB60F9211242F933F934F9337
S11302605F936F937F938F939F93AF93BF93EF931A
S1130270FF938091660090916700019690936700C8
S113028080936600892B41F480916E0082BFE091D7
S11302906A00F0916B000995FF91EF91BF91AF91C6
S11302A09F918F917F916F915F914F913F912F918A
S11302B00F900FBE0F901F9018951F920F920FB6BC
S11302C00F9211242F933F934F935F936F937F93D8
S11302D08F939F93AF93BF93EF93FF938DE98CBF5D
S11302E080916400909165000196909365008093DD
S11302F0640020916C0030916D008217930761F4C3
S1130300109265001092640080916E008CBFE091A1
S11303106A00F0916B000995FF91EF91BF91AF9145
S11303209F918F917F916F915F914F913F912F9109
S11303300F900FBE0F901F9018951F920F920FB63B
S11303400F9211242F933F934F935F936F937F9357
S11303508F939F93AF93BF93EF93FF93809162002A
S11303609091630001969093630080936200892BBF
S113037031F412BEE0916800F09169000995FF9193
S1130380EF91BF91AF919F918F917F916F915F9109
S11303904F913F912F910F900FBE0F901F90189582
S11303A01F920F920FB60F9211242F933F934F93E6
S11303B05F936F937F938F939F93AF93BF93EF93C9
S11303C0FF93809160009091610001969093610089
S11303D08093600020916C0030916D008217930728
S11303E049F41092610010926000E0916800F0916D
S11303F069000995FF91EF91BF91AF919F918F9102
S11304007F916F915F914F913F912F910F900FBE0C
S11304100F901F901895AA1BBB1B51E107C0AA1F80
S1130420BB1FA617B70710F0A61BB70B881F991F91
S11304305A95A9F780959095BC01CD010895F8943B
S1050440FFCFE8
S9030000FC
