S00B00004144432E7372656351
S11300000C942A000C9434000C9434000C943400A6
S11300100C9434000C9434000C9434000C9434008C
S11300200C9434000C9434000C9434000C9434007C
S11300300C9434000C9434000C9434000C9434006C
S11300400C9434000C9434000C9434000C9434005C
S11300500C94340011241FBECFE5D8E0DEBFCDBF21
S11300600E9446020C9493020C9400003E9A3F981E
S1130070389A3D98329A309A319A329A3398379A0C
S11300800895369A349BFECF64B175B144EF51E0C4
S1130090649F9001659F300D749F300D1124232FB0
S11300A026952695FC012083118208954423B9F1F5
S11300B0413009F06BC0813089F028F08230C9F0FA
S11300C0833011F108952AB381E090E002C0880FD3
S11300D0991F6A95E2F7822B8ABB089527B381E0C2
S11300E090E002C0880F991F6A95E2F7822B87BBC4
S11300F0089524B381E090E002C0880F991F6A95A7
S1130100E2F7822B84BB089521B381E090E002C022
S1130110880F991F6A95E2F7822B81BB089581307D
S113012091F028F08230D9F0833029F108952AB370
S113013081E090E002C0880F991F6A95E2F78095EC
S113014082238ABB089527B381E090E002C0880F20
S1130150991F6A95E2F78095822387BB089524B39B
S113016081E090E002C0880F991F6A95E2F78095BC
S1130170822384BB089521B381E090E002C0880FFC
S1130180991F6A95E2F78095822381BB08954423E1
S1130190B9F1413009F06BC0813089F028F0823028
S11301A0C9F0833011F108952BB381E090E002C0CF
S11301B0880F991F6A95E2F7822B8BBB089528B3A9
S11301C081E090E002C0880F991F6A95E2F7822BC4
S11301D088BB089525B381E090E002C0880F991F81
S11301E06A95E2F7822B85BB089522B381E090E003
S11301F002C0880F991F6A95E2F7822B82BB08958B
S1130200813091F028F08230D9F0833029F10895BB
S11302102BB381E090E002C0880F991F6A95E2F742
S1130220809582238BBB089528B381E090E002C0BF
S1130230880F991F6A95E2F78095822388BB0895F9
S113024025B381E090E002C0880F991F6A95E2F718
S11302508095822385BB089522B381E090E002C09B
S1130260880F991F6A95E2F78095822382BB0895CF
S1130270CF93C82F40E061E081E00E94C70040E0D6
S113028062E081E00E94C70040E063E081E00E94F8
S1130290C7008BB39C2F907F8F70892B8BBB41E061
S11302A063E081E00E94C7008FE99FE00197F1F7C6
S11302B000C0000040E063E081E00E94C7002BB36F
S11302C030E1C39FC0011124922F9F70892B8BBBF7
S11302D041E063E081E00E94C7008FE99FE001975D
S11302E0F1F700C0000040E063E081E00E94C70035
S11302F08FE19EE40197F1F700C00000CF910895CB
S113030041E061E081E00E94560041E062E081E06A
S11303100E94560041E063E081E00E94560041E003
S113032064E080E00E94560041E065E080E00E94C5
S1130330560041E066E080E00E94560041E067E03C
S113034080E00E9456002FEF81EE94E0215080401F
S11303509040E1F700C0000083E30E94380182E38B
S11303600E94380188E20E9438018CE00E94380122
S113037081E00E94380186E00E94380182E00E94F8
S113038038010895CF93C82F41E061E081E00E94D5
S1130390C70040E062E081E00E94C70040E063E003
S11303A081E00E94C7008C2F807F8BBB41E063E01B
S11303B081E00E94C7008FE99FE00197F1F700C038
S11303C0000040E063E081E00E94C700C295C07F66
S11303D0CBBB41E063E081E00E94C7008FE99FE06E
S11303E00197F1F700C0000040E063E081E00E9463
S11303F0C7008FE19EE40197F1F700C00000CF91A0
S1130400089581E00E94380108950F931F93CF93BC
S1130410DF93EC01992334F4D195C195D1098DE290
S11304200E94C2011C161D0664F581E090E0EAE01A
S1130430F0E09C01220F331F880F991F880F991F2A
S1130440880F991F280F391FCE01BF010E946B022C
S1130450820F931FC62FD72F1C161D0654F382300C
S113046091057CF00AE010E0B8010E946B02D62FDF
S1130470C72F805D0E94C2018D2F9C2F8230910571
S11304809CF7DF91CF911F910F910895CF93DF9344
S113049000D0CDB7DEB70E9480010E9465021A82A7
S11304A01982CE0101960E9468020E94010289818C
S11304B09A810E9405022FEF89E698E1215080403D
S11304C09040E1F700C00000ECCF0E943600089590
S11304D00E944100089597FB072E16F4009407D05C
S11304E077FD09D00E947F0207FC05D03EF4909569
S11304F081959F4F0895709561957F4F0895AA1B2C
S1130500BB1B51E107C0AA1FBB1FA617B70710F0FA
S1130510A61BB70B881F991F5A95A9F7809590952C
S10D0520BC01CD010895F894FFCF4B
S9030000FC
