:100000000C943A000C944F000C944F000C944F0049
:100010000C944F000C944F000C944F000C944F0024
:100020000C944F000C944F000C944F000C944F0014
:100030000C944F000C944F000C944F000C944F0004
:100040000C944F000C944F000C944F000C944F00F4
:100050000C944F000C944F000C944F000C944F00E4
:100060000C944F000C944F000C944F000C944F00D4
:100070000C944F0011241FBECFEFD4E0DEBFCDBFE4
:1000800011E0A0E0B1E0E6EEF3E002C005900D92D1
:10009000A630B107D9F70E94BB010C94F1010C9472
:1000A00000004423B9F1413009F06BC0813089F080
:1000B00028F08230C9F0833011F108952AB381E02D
:1000C00090E002C0880F991F6A95E2F7822B8ABBE5
:1000D000089527B381E090E002C0880F991F6A95C8
:1000E000E2F7822B87BB089524B381E090E002C041
:1000F000880F991F6A95E2F7822B84BB089521B37C
:1001000081E090E002C0880F991F6A95E2F7822B88
:1001100081BB0895813091F028F08230D9F083308E
:1001200029F108952AB381E090E002C0880F991F59
:100130006A95E2F7809582238ABB089527B381E010
:1001400090E002C0880F991F6A95E2F7809582239C
:1001500087BB089524B381E090E002C0880F991F07
:100160006A95E2F78095822384BB089521B381E0EC
:1001700090E002C0880F991F6A95E2F7809582236C
:1001800081BB08954423B9F1413009F06BC081303F
:1001900089F028F08230C9F0833011F108952BB333
:1001A00081E090E002C0880F991F6A95E2F7822BE8
:1001B0008BBB089528B381E090E002C0880F991F9F
:1001C0006A95E2F7822B88BB089525B381E090E021
:1001D00002C0880F991F6A95E2F7822B85BB0895AC
:1001E00022B381E090E002C0880F991F6A95E2F780
:1001F000822B82BB0895813091F028F08230D9F0B3
:10020000833029F108952BB381E090E002C0880F7C
:10021000991F6A95E2F7809582238BBB089528B3D6
:1002200081E090E002C0880F991F6A95E2F78095FF
:10023000822388BB089525B381E090E002C0880F37
:10024000991F6A95E2F78095822385BB089522B3B2
:1002500081E090E002C0880F991F6A95E2F78095CF
:10026000822382BB0895CF93C82F40E061E081E0F4
:100270000E94C20040E062E081E00E94C20040E0D3
:1002800063E081E00E94C2009BB38C2F807F9F704F
:10029000982B9BBB41E063E081E00E94C2008FE9A4
:1002A0009FE00197F1F700C0000040E063E081E0CB
:1002B0000E94C2009BB38C2F8295807F9F70892BF8
:1002C0008BBB41E063E081E00E94C2008FE99FE0C8
:1002D0000197F1F700C0000040E063E081E00E9478
:1002E000C2008FE19EE40197F1F700C00000CF91BA
:1002F000089541E061E081E00E94510041E062E048
:1003000081E00E94510041E063E081E00E945100E1
:1003100041E064E080E00E94510041E065E080E05F
:100320000E94510041E066E080E00E94510041E0FF
:1003300067E080E00E9451002FEF81EE94E02150B1
:1003400080409040E1F700C0000083E30E94330149
:1003500082E30E94330188E20E9433018CE00E9414
:10036000330181E00E94330186E00E94330182E084
:100370000E94330108950E94C40180E091E00E9430
:10038000DB010E947901FFCF40E060E083E00E9442
:10039000510041E061E083E00E9451008AB1886130
:1003A0008AB980B5866880BD87E689B908955D9B66
:1003B000FECF8CB908950F931F93CF93FC018081DA
:1003C000882359F08F01C0E00E94D701CF5FF80168
:1003D000EC0FF11D80818111F7CFCF911F910F910B
:0603E0000895F894FFCF20
:0603E60048454C4C4F009D
:00000001FF
