S00C0000554152542E73726563DC
S11300000C943A000C9444000C9444000C94440066
S11300100C9444000C9444000C9444000C9444004C
S11300200C9444000C9444000C9444000C9444003C
S11300300C9444000C9444000C9444000C9444002C
S11300400C9444000C9444000C9444000C9444001C
S11300500C9444000C9444000C9444000C9444000C
S11300600C9444000C9444000C9444000C944400FC
S11300700C94440011241FBECFEFD4E0DEBFCDBFEB
S11300800E9497010C94B3010C940000442379F16D
S1130090413009F05FC0813079F028F08230A9F056
S11300A08330E1F008952AB381E090E001C0880F25
S11300B06A95EAF7822B2CC027B381E090E001C057
S11300C0880F6A95EAF7822B2EC024B381E090E072
S11300D001C0880F6A95EAF7822B30C021B381E012
S11300E090E001C0880F6A95EAF7822B32C0813014
S11300F089F028F08230C9F0833011F108952AB3D1
S113010081E090E001C0880F6A95EAF78095822328
S11301108ABB089527B381E090E001C0880F6A95F7
S1130120EAF78095822387BB089524B381E090E0A9
S113013001C0880F6A95EAF78095822384BB0895ED
S113014021B381E090E001C0880F6A95EAF78095B9
S1130150822381BB0895442379F1413009F05FC0C3
S1130160813079F028F08230A9F08330E1F00895ED
S11301702BB381E090E001C0880F6A95EAF7822BE7
S11301802CC028B381E090E001C0880F6A95EAF79B
S1130190822B2EC025B381E090E001C0880F6A95C0
S11301A0EAF7822B30C022B381E090E001C0880FCF
S11301B06A95EAF7822B32C0813089F028F08230C8
S11301C0C9F0833011F108952BB381E090E001C0B0
S11301D0880F6A95EAF7809582238BBB089528B32C
S11301E081E090E001C0880F6A95EAF78095822348
S11301F088BB089525B381E090E001C0880F6A951B
S1130200EAF78095822385BB089522B381E090E0CC
S113021001C0880F6A95EAF78095822382BB08950E
S1130220CF93C82F40E061E081E00E94AB0040E042
S113023062E081E00E94AB0040E063E081E00E9464
S1130240AB009BB38C2F807F9F70982B9BBB41E0AE
S113025063E081E00E94AB008FE99FE00197F1F732
S113026000C0000040E063E081E00E94AB009BB36B
S11302708C2F8295807F9F70892B8BBB41E063E03C
S113028081E00E94AB008FE99FE00197F1F700C085
S1130290000040E063E081E00E94AB008FE19EE457
S11302A00197F1F700C00000CF91089541E061E0AB
S11302B081E00E94460041E062E081E00E94460045
S11302C041E063E081E00E94460041E064E080E0B8
S11302D00E94460041E065E080E00E94460041E063
S11302E066E080E00E94460041E067E080E00E9412
S11302F046002FEF81EE94E0215080409040E1F7DA
S113030000C0000083E30E94100182E30E941001F8
S113031088E20E9410018CE00E94100181E00E949A
S1130320100186E00E94100182E00C9410010E94EA
S11303309C010E945601FFCF40E060E083E00E94F0
S1130340460041E061E083E00E9446008AB1886192
S11303508AB980B5866880BD87E689B9579A8FB710
S10D036080688FBF0895F894FFCF62
S9030000FC
