:100000000C942A000C943C000C943C000C943C0092
:100010000C943C000C943C000C943C000C94270184
:100020000C943C000C94F4000C943C000C94C10023
:100030000C943C000C943C000C943C000C943C0050
:100040000C943C000C943C000C943C000C943C0040
:100050000C943C0011241FBECFE5D8E0DEBFCDBF1D
:1000600020E0A0E6B0E001C01D92AC36B207E1F797
:100070000E94AF000C94B6010C9400004423B9F127
:10008000413009F06BC0813089F028F08230C9F02E
:10009000833011F108952AB381E090E002C0880F07
:1000A000991F6A95E2F7822B8ABB089527B381E0F6
:1000B00090E002C0880F991F6A95E2F7822B87BBF8
:1000C000089524B381E090E002C0880F991F6A95DB
:1000D000E2F7822B84BB089521B381E090E002C057
:1000E000880F991F6A95E2F7822B81BB08958130B2
:1000F00091F028F08230D9F0833029F108952AB3A5
:1001000081E090E002C0880F991F6A95E2F7809520
:1001100082238ABB089527B381E090E002C0880F54
:10012000991F6A95E2F78095822387BB089524B3CF
:1001300081E090E002C0880F991F6A95E2F78095F0
:10014000822384BB089521B381E090E002C0880F30
:10015000991F6A95E2F78095822381BB08950E94DA
:10016000B70087E00E9473010E948401FFCF82B331
:1001700041E065E00E943E000E9462010E9484010D
:1001800008951F920F920FB60F9211242F933F9351
:100190004F935F936F937F938F939F93AF93BF938F
:1001A000EF93FF9380916400909165000196909386
:1001B000650080936400892B31F412BEE0916A00DF
:1001C000F0916B000995FF91EF91BF91AF919F91D5
:1001D0008F917F916F915F914F913F912F910F90F0
:1001E0000FBE0F901F9018951F920F920FB60F928F
:1001F00011242F933F934F935F936F937F938F932C
:100200009F93AF93BF93EF93FF9380916200909180
:10021000630001969093630080936200892B31F410
:1002200012BEE0916600F09167000995FF91EF9191
:10023000BF91AF919F918F917F916F915F914F91FE
:100240003F912F910F900FBE0F901F9018951F9206
:100250000F920FB60F9211242F933F934F935F93FA
:100260006F937F938F939F93AF93BF93EF93FF937E
:10027000809160009091610001969093610080935D
:10028000600020916800309169008217930749F45B
:100290001092610010926000E0916600F09167009A
:1002A0000995FF91EF91BF91AF919F918F917F91B0
:1002B0006F915F914F913F912F910F900FBE0F90D3
:1002C0001F9018958FB58E7F8FBD8FB582608FBDC3
:1002D0008EB588608EBD8EB580618EBD82EE94E055
:1002E00097BD86BD089522EE34E0482F429FC0019D
:1002F000439F900D112464E670E00E948E016150CE
:1003000071097BBD6ABD08958EB58E7F8EBD8EB599
:100310008D7F8EBD8EB584608EBD089597FB072EB0
:1003200016F4009407D077FD09D00E94A20107FCC3
:1003300005D03EF4909581959F4F089570956195F5
:100340007F4F0895AA1BBB1B51E107C0AA1FBB1F0B
:10035000A617B70710F0A61BB70B881F991F5A9551
:10036000A9F780959095BC01CD010895F894FFCF31
:00000001FF
