S00B00004144432E7372656351
S11300000C942A000C943F000C943F000C943F0085
S11300100C943F000C943F000C943F000C943F0060
S11300200C943F000C943F000C943F000C943F0050
S11300300C943F000C943F000C943F000C943F0040
S11300400C943F000C943F000C943F000C943F0030
S11300500C943F0011241FBECFE5D8E0DEBFCDBF16
S113006010E0A0E6B0E0ECE6F7E002C005900D92E7
S1130070A039B107D9F70E9440030C94B4030C943F
S113008000003E9A3F98389A3D98329A309A319AB5
S1130090329A3398379A0895369A349BFECF64B1D6
S11300A075B144EF51E0649F9001659F300D749FDA
S11300B0300D1124232F26952695FC0120831182CF
S11300C00895442379F1413009F05FC0813079F01B
S11300D028F08230A9F08330E1F008952AB381E05A
S11300E090E001C0880F6A95EAF7822B2CC027B3F1
S11300F081E090E001C0880F6A95EAF7822B2EC058
S113010024B381E090E001C0880F6A95EAF7822B5E
S113011030C021B381E090E001C0880F6A95EAF70E
S1130120822B32C0813089F028F08230C9F08330CC
S113013011F108952AB381E090E001C0880F6A9517
S1130140EAF7809582238ABB089527B381E090E083
S113015001C0880F6A95EAF78095822387BB0895CA
S113016024B381E090E001C0880F6A95EAF7809596
S1130170822384BB089521B381E090E001C0880FFD
S11301806A95EAF78095822381BB0895442379F127
S1130190413009F05FC0813079F028F08230A9F055
S11301A08330E1F008952BB381E090E001C0880F23
S11301B06A95EAF7822B2CC028B381E090E001C055
S11301C0880F6A95EAF7822B2EC025B381E090E070
S11301D001C0880F6A95EAF7822B30C022B381E010
S11301E090E001C0880F6A95EAF7822B32C0813013
S11301F089F028F08230C9F0833011F108952BB3CF
S113020081E090E001C0880F6A95EAF78095822327
S11302108BBB089528B381E090E001C0880F6A95F4
S1130220EAF78095822388BB089525B381E090E0A6
S113023001C0880F6A95EAF78095822385BB0895EB
S113024022B381E090E001C0880F6A95EAF78095B7
S1130250822382BB0895FA01813041F028F0823074
S113026039F0833039F0089589B305C086B303C0EB
S113027083B301C080B390E002C0959587956A95D9
S1130280E2F7817080830895813081F028F0823014
S1130290B9F08330F9F008952BB381E090E001C008
S11302A0880F6A95EAF7822B8BBB089528B381E007
S11302B090E001C0880F6A95EAF7822B88BB089505
S11302C025B381E090E001C0880F6A95EAF7822B9C
S11302D085BB089522B381E090E001C0880F6A9540
S11302E0EAF7822B82BB089540E067E083E00E9436
S11302F0610040E066E083E00E94610040E065E068
S113030083E00E94610040E064E083E00E946100B9
S113031041E060E083E00E94610041E061E083E04D
S11303200E94610041E062E083E00E94610041E0DC
S113033063E083E00E94610067E083E00E9444017F
S113034066E083E00E94440165E083E00E9444018A
S113035064E083E00E94440141E060E083E00E94A5
S1130360C60041E061E083E00E94C60041E062E033
S113037083E00E94C60041E063E083E00C94C60081
S1130380BF92CF92DF92EF92FF920F931F93CF937E
S1130390DF931F92CDB7DEB7198290E6C92E90E0A5
S11303A0D92E00E010E040E0612F83E00E94C600F7
S11303B0E12CF12C84E0B82EBE0CAE014F5F5F4FF0
S11303C06B2D83E00E942B018981811115C0F601F8
S11303D0EE0DFF1D00818981811108C0AE014F5FC0
S11303E05F4F6B2D83E00E942B01F5CF8FE39CE9D7
S11303F00197F1F700C000009FEFE91AF90A84E0C1
S1130400E816F104B9F641E0612F83E00E94C600CA
S11304101F5F94E0C90ED11C143029F6802F0F9071
S1130420DF91CF911F910F91FF90EF90DF90CF90CC
S1130430BF900895CF93C82F40E061E081E00E940F
S1130440C60040E062E081E00E94C60040E063E054
S113045081E00E94C6008BB39C2F907F8F70892B04
S11304608BBB41E063E081E00E94C6008FE99FE01E
S11304700197F1F700C0000040E063E081E00E94D2
S1130480C6002BB330E1C39FC0011124922F9F708B
S1130490892B8BBB41E063E081E00E94C6008FE9B9
S11304A09FE00197F1F700C0000040E063E081E0C5
S11304B00E94C6008FE19EE40197F1F700C000009E
S11304C0CF91089541E061E081E00E94610041E044
S11304D062E081E00E94610041E063E081E00E940B
S11304E0610041E064E080E00E94610041E065E079
S11304F080E00E94610041E066E080E00E946100CB
S113050041E067E080E00E9461002FEF81EE94E01B
S1130510215080409040E1F700C0000083E30E9436
S11305201A0282E30E941A0288E20E941A028CE0F4
S11305300E941A0281E00E941A0286E00E941A02B6
S113054082E00C941A02CF93C82F41E061E081E06D
S11305500E94C60040E062E081E00E94C60040E0E4
S113056063E081E00E94C6008C2F807F8BBB41E05A
S113057063E081E00E94C6008FE99FE00197F1F7F4
S113058000C0000040E063E081E00E94C600C29524
S1130590C07FCBBB41E063E081E00E94C6008FE9ED
S11305A09FE00197F1F700C0000040E063E081E0C4
S11305B00E94C6008FE19EE40197F1F700C000009D
S11305C0CF9108950F931F93CF938C01C0E0F8014E
S11305D0EC0FF11D8081882321F00E94A302CF5FDC
S11305E0F6CFCF911F910F91089581E00C941A02D8
S11305F0CF93DF9300D0CDB7DEB790E8998390EC2A
S11306009A83FE01E80FF11D8181860F0F900F90F0
S1130610DF91CF910C941A020F931F93CF93DF9322
S1130620EC0197FF06C0D195C195D1098DE20E94D6
S1130630A30281E090E02AE0EAE0F0E0209769F08C
S1130640289F8001299F100D1124CE01BF010E9413
S11306508C03800F911FEB01F1CFCAE0D0E0823010
S113066091054CF0BE010E948C038B01805D0E94B9
S1130670A302C801F4CFDF91CF911F910F91089588
S1130680CF93DF9300D000D000D0CDB7DEB71E8269
S11306901D820E9462020E9474010E94880380E706
S11306A090E00E94E20260E081E00E94F8028E0184
S11306B00F5F1F4F6E0185E0C80ED11C0E94C00160
S11306C0F82E8823D9F30E94A302F801F1928F0136
S11306D0CE16DF0699F78981813099F48A818230B8
S11306E081F48B81833069F48C81843051F40E94CD
S11306F0F502C6010E948A038D819E810E940C032B
S113070006C00E94F5028DE790E00E94E202FFCF4E
S11307100C9441000C944C0097FB072E16F40094A3
S113072007D077FD09D00E94A00307FC05D03EF452
S1130730909581959F4F0895709561957F4F089589
S1130740AA1BBB1B51E107C0AA1FBB1FA617B707F3
S113075010F0A61BB70B881F991F5A95A9F780950F
S10F07609095BC01CD010895F894FFCFE2
S113076C3132332B3435362D373839632A302F3D1B
S113077C50617373776F726420706C7A005061737C
S113078C73776F72642069732077726F6E670000E1
S9030000FC
