S00F000044434D6F746F722E737265637D
S11300000C942A000C943C000C943C000C943C008E
S11300100C943C000C943C000C943C000C94F001B7
S11300200C943C000C94BD010C943C000C948A018B
S11300300C943C000C943C000C943C000C943C004C
S11300400C943C000C943C000C943C000C943C003C
S11300500C943C0011241FBECFE5D8E0DEBFCDBF19
S113006020E0A0E6B0E001C01D92AC36B207E1F793
S11300700E9458010C943A020C94000041E063E0A1
S113008082E00E94760041E064E082E00E94760013
S113009041E063E081E00E9476000E9463010895DC
S11300A0880F982F990F990F890F90E00E947A0179
S11300B00895882319F0813059F0089541E063E0F0
S11300C082E00E94E70040E064E082E00E94E700F2
S11300D040E064E082E00E94E70041E063E082E007
S11300E00E94E70008950E94700108954423B9F125
S11300F0413009F06BC0813089F028F08230C9F0BA
S1130100833011F108952AB381E090E002C0880F92
S1130110991F6A95E2F7822B8ABB089527B381E081
S113012090E002C0880F991F6A95E2F7822B87BB83
S1130130089524B381E090E002C0880F991F6A9566
S1130140E2F7822B84BB089521B381E090E002C0E2
S1130150880F991F6A95E2F7822B81BB089581303D
S113016091F028F08230D9F0833029F108952AB330
S113017081E090E002C0880F991F6A95E2F78095AC
S113018082238ABB089527B381E090E002C0880FE0
S1130190991F6A95E2F78095822387BB089524B35B
S11301A081E090E002C0880F991F6A95E2F780957C
S11301B0822384BB089521B381E090E002C0880FBC
S11301C0991F6A95E2F78095822381BB08954423A1
S11301D0B9F1413009F06BC0813089F028F08230E8
S11301E0C9F0833011F108952BB381E090E002C08F
S11301F0880F991F6A95E2F7822B8BBB089528B369
S113020081E090E002C0880F991F6A95E2F7822B83
S113021088BB089525B381E090E002C0880F991F40
S11302206A95E2F7822B85BB089522B381E090E0C2
S113023002C0880F991F6A95E2F7822B82BB08954A
S1130240813091F028F08230D9F0833029F108957B
S11302502BB381E090E002C0880F991F6A95E2F702
S1130260809582238BBB089528B381E090E002C07F
S1130270880F991F6A95E2F78095822388BB0895B9
S113028025B381E090E002C0880F991F6A95E2F7D8
S11302908095822385BB089522B381E090E002C05B
S11302A0880F991F6A95E2F78095822382BB08958F
S11302B00E943E0080E00E9459008AE00E945000A3
S11302C00E947300FFCF83B7886083BF83B78064C5
S11302D083BF83B78F7E83BF83B7806283BF089554
S11302E083B7816083BF83B78D7F83BF83B7846007
S11302F083BF089520E030E0382F36952795369552
S11303002795ABE7B4E10E942B029695879581501F
S11303108CBF08951F920F920FB60F9211242F9342
S11303203F934F935F936F937F938F939F93AF9379
S1130330BF93EF93FF9380916400909165000196C1
S11303409093650080936400892B31F412BEE09190
S11303506A00F0916B000995FF91EF91BF91AF9105
S11303609F918F917F916F915F914F913F912F91C9
S11303700F900FBE0F901F9018951F920F920FB6FB
S11303800F9211242F933F934F935F936F937F9317
S11303908F939F93AF93BF93EF93FF9380916200EA
S11303A09091630001969093630080936200892B7F
S11303B031F412BEE0916600F09167000995FF9157
S11303C0EF91BF91AF919F918F917F916F915F91C9
S11303D04F913F912F910F900FBE0F901F90189542
S11303E01F920F920FB60F9211242F933F934F93A6
S11303F05F936F937F938F939F93AF93BF93EF9389
S1130400FF93809160009091610001969093610048
S113041080936000209168003091690082179307EF
S113042049F41092610010926000E0916600F0912E
S113043067000995FF91EF91BF91AF919F918F91C3
S11304407F916F915F914F913F912F910F900FBECC
S11304500F901F901895A29FB001B39FC001A39F56
S1130460700D811D1124911DB29F700D811D1124E9
S10B0470911D0895F894FFCFDB
S9030000FC
