:100000000C942A000C943C000C943C000C943C0092
:100010000C943C000C943C000C943C000C943C0070
:100020000C943C000C943C000C943C000C94530148
:100030000C943C000C943C000C943C000C943C0050
:100040000C943C000C943C000C943C000C943C0040
:100050000C943C0011241FBECFE5D8E0DEBFCDBF1D
:1000600020E0A0E6B0E001C01D92A336B207E1F7A0
:100070000E9408010C94B8010C940000442379F10B
:10008000413009F05FC0813079F028F08230A9F06A
:100090008330E1F008952AB381E090E001C0880F39
:1000A0006A95EAF7822B2CC027B381E090E001C06B
:1000B000880F6A95EAF7822B2EC024B381E090E086
:1000C00001C0880F6A95EAF7822B30C021B381E026
:1000D00090E001C0880F6A95EAF7822B32C0813028
:1000E00089F028F08230C9F0833011F108952AB3E5
:1000F00081E090E001C0880F6A95EAF7809582233D
:100100008ABB089527B381E090E001C0880F6A950B
:10011000EAF78095822387BB089524B381E090E0BD
:1001200001C0880F6A95EAF78095822384BB089501
:1001300021B381E090E001C0880F6A95EAF78095CD
:10014000822381BB0895442379F1413009F05FC0D7
:10015000813079F028F08230A9F08330E1F0089501
:100160002BB381E090E001C0880F6A95EAF7822BFB
:100170002CC028B381E090E001C0880F6A95EAF7AF
:10018000822B2EC025B381E090E001C0880F6A95D4
:10019000EAF7822B30C022B381E090E001C0880FE3
:1001A0006A95EAF7822B32C0813089F028F08230DC
:1001B000C9F0833011F108952BB381E090E001C0C4
:1001C000880F6A95EAF7809582238BBB089528B340
:1001D00081E090E001C0880F6A95EAF7809582235C
:1001E00088BB089525B381E090E001C0880F6A952F
:1001F000EAF78095822385BB089522B381E090E0E1
:1002000001C0880F6A95EAF78095822382BB089522
:100210000E9410018AE50E9419010E944101FFCF4E
:1002200083B783BF89B7816089BF8FB780688FBF6D
:100230000895282F30E0982FECE9FFEF80E0BF0110
:100240000E9490016F5F6093620062BF84E690E05D
:10025000821B930B982F80E0BF010E9490016F5F7B
:100260006093610041E063E082E00E943E0041E073
:1002700064E082E00E943E0041E062E081E00C9494
:100280003E0083B7836083BF41E062E081E00E946B
:10029000A30041E063E082E00E94A30040E064E04C
:1002A00082E00C94A3001F920F920FB60F921124BC
:1002B0002F933F934F935F936F937F938F939F936E
:1002C000AF93BF93EF93FF93809160008F5F809314
:1002D0006000813041F440E062E00E94A300809120
:1002E000610082BF0CC0823051F441E062E081E0E5
:1002F0000E94A3008091620082BF10926000FF9173
:10030000EF91BF91AF919F918F917F916F915F918D
:100310004F913F912F910F900FBE0F901F90189506
:1003200097FB072E16F4009407D077FD09D00E94A2
:10033000A40107FC05D03EF4909581959F4F089548
:10034000709561957F4F0895AA1BBB1B51E107C0B3
:10035000AA1FBB1FA617B70710F0A61BB70B881F55
:10036000991F5A95A9F780959095BC01CD010895E4
:04037000F894FFCF2F
:00000001FF
