S00F000044434D6F746F722E737265637D
S11300000C942A000C943C000C943C000C943C008E
S11300100C943C000C943C000C943C000C94CE01D9
S11300200C943C000C949B010C943C000C946801CF
S11300300C943C000C943C000C943C000C943C004C
S11300400C943C000C943C000C943C000C943C003C
S11300500C943C0011241FBECFE5D8E0DEBFCDBF19
S113006020E0A0E6B0E001C01D92AC36B207E1F793
S11300700E943C010C941D020C94000041E063E0DA
S113008082E00E94720041E064E082E00E9472001B
S113009041E063E081E00E9472000C944701880F04
S11300A0982F990F990F890F90E00C945E01882383
S11300B019F0813059F0089541E063E082E00E9434
S11300C0D70040E064E082E00E94D70040E064E0B2
S11300D082E00E94D70041E063E082E00C94D70004
S11300E00C945401442379F1413009F05FC081300C
S11300F079F028F08230A9F08330E1F008952AB332
S113010081E090E001C0880F6A95EAF7822B2CC049
S113011027B381E090E001C0880F6A95EAF7822B4B
S11301202EC024B381E090E001C0880F6A95EAF7FD
S1130130822B30C021B381E090E001C0880F6A9522
S1130140EAF7822B32C0813089F028F08230C9F07E
S1130150833011F108952AB381E090E001C0880F43
S11301606A95EAF7809582238ABB089527B381E0D4
S113017090E001C0880F6A95EAF78095822387BBD7
S1130180089524B381E090E001C0880F6A95EAF7EE
S11301908095822384BB089521B381E090E001C05F
S11301A0880F6A95EAF78095822381BB08954423DA
S11301B079F1413009F05FC0813079F028F0823064
S11301C0A9F08330E1F008952BB381E090E001C001
S11301D0880F6A95EAF7822B2CC028B381E090E05F
S11301E001C0880F6A95EAF7822B2EC025B381E0FF
S11301F090E001C0880F6A95EAF7822B30C022B3E1
S113020081E090E001C0880F6A95EAF7822B32C042
S1130210813089F028F08230C9F0833011F10895DB
S11302202BB381E090E001C0880F6A95EAF78095CE
S113023082238BBB089528B381E090E001C0880F2E
S11302406A95EAF78095822388BB089525B381E0F7
S113025090E001C0880F6A95EAF78095822385BBF8
S1130260089522B381E090E001C0880F6A95EAF70F
S11302708095822382BB08950E943E0080E00E9404
S113028057008AE00E944F000E947000FFCF83B79E
S1130290886083BF83B7806483BF83B78F7E83BF47
S11302A083B7806283BF089583B7816083BF83B7B8
S11302B08D7F83BF83B7846083BF089520E0982F28
S11302C0822F64E670E00E94090261506CBF0895B9
S11302D01F920F920FB60F9211242F933F934F93B7
S11302E05F936F937F938F939F93AF93BF93EF939A
S11302F0FF9380916400909165000196909365004E
S113030080936400892B31F412BEE0916A00F0916D
S11303106B000995FF91EF91BF91AF919F918F91E0
S11303207F916F915F914F913F912F910F900FBEED
S11303300F901F9018951F920F920FB60F921124D1
S11303402F933F934F935F936F937F938F939F93D9
S1130350AF93BF93EF93FF938091620090916300FA
S113036001969093630080936200892B31F412BE4E
S1130370E0916600F09167000995FF91EF91BF91BC
S1130380AF919F918F917F916F915F914F913F9129
S11303902F910F900FBE0F901F9018951F920F92E0
S11303A00FB60F9211242F933F934F935F936F9344
S11303B07F938F939F93AF93BF93EF93FF9380911A
S11303C060009091610001969093610080936000B9
S11303D020916800309169008217930749F41092C4
S11303E0610010926000E0916600F0916700099549
S11303F0FF91EF91BF91AF919F918F917F916F91F9
S11304005F914F913F912F910F900FBE0F901F90CE
S11304101895AA1BBB1B51E107C0AA1FBB1FA61737
S1130420B70710F0A61BB70B881F991F5A95A9F799
S111043080959095BC01CD010895F894FFCFFE
S9030000FC
